:100000000C94EC000C94E2010C9409010C9409018D
:100010000C9409010C9409010C9409010C94090138
:100020000C9409010C9409010C94F1060C945707E7
:100030000C9409010C9409010C9409010C94090118
:100040000C9409010C9409010C9409010C94090108
:100050000C9409010C9409010C9409010C940901F8
:100060000C9409010C9409010C9409010C940901E8
:100070000C9409010C9409010C9409010C940901D8
:100080000C9409010C9409010C9409010C940901C8
:100090000C9409010C9409010C9409010C940901B8
:1000A0000C9409010C9409010C9409010001000051
:1000B000BE01120002000011013B002200008B0172
:1000C0003300210000230109002201004C013F0000
:1000D0002101003C0109000300000D010401030996
:1000E00004FD000E02030904EB001010034B003264
:1000F0000053005F0030003000310000000E034B61
:10010000004B0053005F0048004D0000000403094D
:100110000409023B00020100C0320904000001038F
:1001200001020009211101000122330007058303A8
:10013000040001090401000103010100092111016A
:100140000001223F0007058403080001050109069C
:10015000A10175019508050719E029E7150025019A
:10016000810295017508810395057501050819013E
:1001700029059102950175039103950675081500EF
:1001800025680507190029688100C005010902A139
:100190000105091901290315002501950375018140
:1001A0000295017505810305010930093115812585
:1001B0007F750895028106093895018106C01201F4
:1001C000000200000020C0167F04000101020001AF
:1001D000000001C10601C10611241FBECFEFDAE005
:1001E000DEBFCDBF13E0A0E0B1E0E4EBFBE102C075
:1001F00005900D92AA37B107D9F723E0AAE7B3E03B
:1002000001C01D92AB3AB207E1F70E940B010C94BA
:10021000D80D0C940000CF93DF93CDB7DEB7609775
:100220000FB6F894DEBF0FBECDBF2FEF81EE94E086
:10023000215080409040E1F700C0000060E070E095
:1002400089E596E00E9434090E9446060E94320623
:100250008EE091E00E949C098CE291E00E949C0952
:100260000E94DC020E94DE040E94E9020E94EC026D
:100270000E94D8020E9463060E947A068823E1F356
:10028000AFEFB3ED20E3A150B0402040E1F700C054
:1002900000000F2EF8E56F2EF1E07F2EF02D0F2ECF
:1002A000F6E6AF2EF1E0BF2EF02D4E0181E1880E73
:1002B000911C809194038823E1F38130D1F789E484
:1002C00091E00E949C0968E08AE793E00E94DA05C9
:1002D0001816190674F77F926F920E947F09DE014B
:1002E00011966D010F2EFAE7EF2EF3E0FF2EF02DA1
:1002F0000F900F9000E010E0F701D601ED92FD9213
:100300006D018081BFEFEB1AFB0A1F928F931F9341
:100310000F93BF92AF920E947F090F5F1F4F0F9004
:100320000F900F900F900F900F900830110521F74C
:10033000E981FA818081813009F041C0EB81FC8143
:1003400080818230C1F0833051F18130C1F5FE01EE
:1003500035962EE833E081919191DC018C91D901A1
:100360008D939D018E169F06B1F760E08EE893E0B5
:100370000E94D40624C0FE01359628E833E081911E
:100380009191DC018C91D9018D939D018E169F0670
:10039000B1F760E088E893E00E94D40610C0FE0147
:1003A000359622E833E081919191DC018C91D9015D
:1003B0008D939D01E815F905B1F70E949A051092F9
:1003C000940377CF1F920F920FB60F9211242F93A1
:1003D0003F934F935F936F937F938F939F93AF93CD
:1003E000BF93EF93FF9383E891E00E949C0981E023
:1003F00080939403FF91EF91BF91AF919F918F9163
:100400007F916F915F914F913F912F910F900FBE10
:100410000F901F9018952C9A289A08952C98289838
:100420000895EF92FF920F931F93CF93DF93C82FFE
:100430007B018A010E940E028C2F0E944006E1146B
:10044000F10469F01016110654F4E7010E0D1F1D9A
:100450008FEF0E94400689930C171D07C9F78FEF95
:100460000E944006C82F0E940B028C2FDF91CF9173
:100470001F910F91FF90EF900895DF92EF92FF92FE
:100480000F931F93CF93DF93C82F7B018A010E94A4
:100490000E02C03208F4C05E8C2F0E944006D82E97
:1004A000E114F10461F0101611064CF4E7010E0D91
:1004B0001F1D89910E9440060C171D07D1F70E944D
:1004C0000B028D2DDF91CF911F910F91FF90EF9037
:1004D000DF9008951F93CF93DF931F92CDB7DEB7C0
:1004E000182F40E050E060E070E080E00E941102D0
:1004F000111103C08E7F898302C08160898341E02E
:1005000050E0BE016F5F7F4F80E00E943D020F9080
:10051000DF91CF911F9108951F93CF93DF931F9287
:10052000CDB7DEB7182F40E050E060E070E086E025
:100530000E941102111103C0877F898302C0886065
:10054000898341E050E0BE016F5F7F4F86E00E94EB
:100550003D020F90DF91CF911F91089540E050E050
:1005600060E070E081EE0E943D0208951F93CF93FA
:10057000DF931F92CDB7DEB7182F40E050E060E068
:1005800070E080E00E941102111103C08D7F898309
:1005900002C08260898341E050E0BE016F5F7F4FFF
:1005A00080E00E943D020F90DF91CF911F9108954E
:1005B0002D9A08952D980895259A5098249A2D984B
:1005C000589A2C9AE89AE9E6F0E08081826080836C
:1005D0000895E09AE89A0895AF92BF92CF92DF9281
:1005E000EF92FF920F931F93CF93DF9300D000D031
:1005F0001F92CDB7DEB78EE891E00E949C0940E0E3
:1006000050E060E070E080E00E9411021F928F9342
:1006100087EA91E09F938F930E947F0940E050E02A
:1006200060E070E081E00E9411021F928F938AEBDC
:1006300091E09F938F930E947F0940E050E060E03B
:1006400070E082E00E9411021F928F938DEC91E086
:100650009F938F930E947F0940E050E060E070E03C
:1006600083E00E9411021F928F9380EE91E09F938E
:100670008F930E947F0940E050E060E070E084E0EA
:100680000E9411021F928F9383EF91E09F938F93AB
:100690000E947F0940E050E060E070E085E00E9449
:1006A00011021F928F9386E092E09F938F930E9496
:1006B0007F0940E050E060E070E086E00E941102B7
:1006C0001F928F9389E192E09F938F930E947F09FD
:1006D00040E050E060E070E087E00E9411021F926D
:1006E0008F938CE292E09F938F930E947F090FB6C5
:1006F000F894DEBF0FBECDBF45E050E0BE016F5F96
:100700007F4F8AE00E9411028FE392E09F938F93C4
:100710000E947F09FE0131967F016E01F6E0CF0E47
:10072000D11C0F900F9087010F2EFDE4AF2EF2E049
:10073000BF2EF02DF80181918F011F928F93BF92F0
:10074000AF920E947F090F900F900F900F900C15A1
:100750001D0581F78AE090E00E94950945E050E090
:10076000BE016F5F7F4F8BE00E94110282E592E035
:100770009F938F930E947F090F900F9087010F2EF8
:10078000FDE4AF2EF2E0BF2EF02DF80181918F0134
:100790001F928F93BF92AF920E947F090F900F908C
:1007A0000F900F900C151D0581F78AE090E00E94D4
:1007B000950940E050E060E070E08CE00E9411029A
:1007C0001F928F9380E692E09F938F930E947F0900
:1007D00040E050E060E070E08DE00E9411021F9266
:1007E0008F9383E792E09F938F930E947F0940E06D
:1007F00050E060E070E08EE00E9411021F928F9343
:1008000086E892E09F938F930E947F0940E050E03A
:1008100060E070E08FE00E9411021F928F9389E9DF
:1008200092E09F938F930E947F0945E050E0BE01C4
:100830006F5F7F4F80E10E9411028CEA92E09F93EC
:100840008F930E947F090FB6F894DEBF0FBECDBF15
:100850000DE412E0F70181917F011F928F931F93A6
:100860000F930E947F090F900F900F900F90EC1440
:10087000FD0481F78AE090E00E94950940E050E095
:1008800060E070E081E10E9411021F928F938AEB79
:1008900092E09F938F930E947F0940E050E060E0D8
:1008A00070E082E10E9411021F928F938DEC92E022
:1008B0009F938F930E947F0940E050E060E070E0DA
:1008C00083E10E9411021F928F9380EE92E09F932A
:1008D0008F930E947F0940E050E060E070E084E187
:1008E0000E9411021F928F9383EF92E09F938F9348
:1008F0000E947F0940E050E060E070E085E10E94E6
:1009000011021F928F9386E093E09F938F930E9432
:100910007F0940E050E060E070E086E10E94110253
:100920001F928F9389E193E09F938F930E947F0999
:1009300040E050E060E070E087E10E9411021F9209
:100940008F938CE293E09F938F930E947F0940E006
:1009500050E060E070E08CE10E9411021F928F93E2
:100960008FE393E09F938F930E947F090FB6F894D3
:10097000DEBF0FBECDBF40E050E060E070E08DE133
:100980000E9411021F928F9382E593E09F938F93B1
:100990000E947F090F900F900F900F900F900F9073
:1009A0000F900F900F90DF91CF911F910F91FF90BB
:1009B000EF90DF90CF90BF90AF900895CF93DF93EB
:1009C00000D01F92CDB7DEB70E94DA020E940B0260
:1009D0008FE39CE90197F1F700C000001A821982A9
:1009E00041E050E0BE016E5F7F4F81E00E943D021A
:1009F00041E050E0BE016F5F7F4F82E00E943D0208
:100A00008FE38A83898340E050E060E070E081E01A
:100A10000E94110281608A8340E050E060E070E053
:100A200082E00E9411028160898341E050E0BE01B2
:100A30006E5F7F4F81E00E943D0241E050E0BE01C9
:100A40006F5F7F4F82E00E943D02198240E050E0DC
:100A500060E070E080E00E9411028C60898341E0D8
:100A600050E0BE016F5F7F4F80E00E943D028FE14A
:100A7000898341E050E0BE016F5F7F4F84E00E94B8
:100A80003D0283E0898341E050E0BE016F5F7F4F0C
:100A90000E943D0240E050E060E070E083E00E9490
:100AA00011028E5F482F50E066E071E080E10E9405
:100AB0003D0240E050E060E070E083E00E941102FF
:100AC0008E5F482F50E066E071E08AE00E943D02B0
:100AD00081E00E946A0288E08A8341E050E0BE0122
:100AE0006E5F7F4F81E10E943D028CE48B8341E089
:100AF00050E0BE016D5F7F4F85E00E943D0280E0C7
:100B00000E948C020E94AE0240E050E060E070E083
:100B100082EE0E943D0281E00E94B6028FE39CE9D2
:100B20000197F1F700C000000F900F900F90DF9138
:100B3000CF910895CF93DF9300D0CDB7DEB70E9459
:100B4000DA020E940B028FE39CE90197F1F700C0E3
:100B5000000081E00E946A0288E0898341E050E061
:100B6000BE016F5F7F4F81E10E943D028CE48A836A
:100B700041E050E0BE016E5F7F4F85E00E943D0284
:100B800080E00E948C020E94AE0240E050E060E0F3
:100B900070E082EE0E943D0281E00E94B6028FE387
:100BA0009CE90197F1F700C000000F900F90DF91D2
:100BB000CF910895AF92BF92CF92DF92EF92FF92C2
:100BC0000F931F93CF93DF931F92CDB7DEB75C01D6
:100BD000C62E40E050E060E070E087E00E94110225
:100BE00086FFF7CF40E050E060E070E080E60E94D2
:100BF0001102082F182F1C190E940E0281E60E9474
:100C00004006CC2071F07501D12C8FEF0E94400678
:100C1000F70181937F01CF018C199D098A159B05EE
:100C2000A1F7112329F08FEF0E9440061150D9F748
:100C30000E940B0280E4898341E050E0BE016F5FB7
:100C40007F4F87E00E943D02802F90E00F90DF9160
:100C5000CF911F910F91FF90EF90DF90CF90BF90B9
:100C6000AF90089584B1876084B9239885B1896075
:100C700085B98CB580648CBD8CB580618CBD0895C0
:100C80008EBD0DB407FEFDCF8EB508951092CD0038
:100C900087E68093CC00EAECF0E080818660808378
:100CA000E9ECF0E0808180618083808188608083CE
:100CB0000895E8ECF0E0908195FFFDCF8093CE00A1
:100CC00080E090E0089581E08093D70080EA8093EF
:100CD000D80082E189BD09B400FEFDCF80E9809390
:100CE000D8001092E0001092A0038CE08093E20004
:100CF000789408958091A0030895CF93DF93809115
:100D0000A003882309F444C08FB7F89494E090932B
:100D1000E9002091E4002E5C9091E80095FD1FC051
:100D20008FBF8091A0038823A9F18091E400281748
:100D300099F1A9EEB0E034E0E8EEF0E0C4EED0E0E6
:100D400008C08FBF8091A003882341F188812817B4
:100D500039F18FB7F8943C93908195FFF2CF909141
:100D60009E03E1EFF0E090831082E8E9F3E02EE9E2
:100D700033E0A1EFB0E091919C93E217F307D9F72C
:100D80009AE39093E800109297038FBF80E009C028
:100D90008FEF07C08FEF05C08FEF03C08FEF01C04B
:100DA0008FEFDF91CF91089560939E03DC01E8E916
:100DB000F3E02EE933E08D9181932E173F07D9F7A9
:100DC0000E947D0681110CC010929E03E8E9F3E0B9
:100DD0001082118212821382148215820E947D0673
:100DE00008951F920F920FB60F9211242F933F93E5
:100DF0008F939F93AF93BF93EF93FF93E1EEF0E058
:100E00008081108283FF0FC01092E90091E09093DF
:100E1000EB001092EC0092E29093ED0098E090933A
:100E2000F0001092A00382FF35C08091A0038823B8
:100E300089F180910B01882369F1809195038F5F7F
:100E400080939503837031F584E08093E90080916D
:100E5000E80085FF1FC0809197038F5F8093970301
:100E600090910B01891316C01092970380919E03F5
:100E7000E1EFF0E080831082E8E9F3E02EE933E06F
:100E8000A1EFB0E081918C93E217F307D9F78AE3E1
:100E90008093E800FF91EF91BF91AF919F918F9167
:100EA0003F912F910F900FBE0F901F9018951F929A
:100EB0000F920FB60F9211240F931F932F933F930E
:100EC0004F935F936F937F938F939F93AF93BF9352
:100ED000CF93DF93EF93FF931092E9008091E800A6
:100EE00083FFA0C1E1EFF0E0A0818081408190818B
:100EF00050E0592B2081908130E0B901792BC081DD
:100F0000D08192EF9093E800863009F057C004C07A
:100F100081E28093EB0093C12CEA30E00BEE10E00D
:100F2000F901A591B4914A175B0701F5F9013296D1
:100F3000A591B4916A177B07C9F4F90134964591DC
:100F40005491F901369624918C2F90E09D2B8F3F80
:100F5000910519F010F08FEF90E0821708F4282F18
:100F6000A8EEB0E06EEFC1EFD0E006C0295F3F4FC2
:100F700002171307A9F6CCCF8C91982F9570E1F347
:100F800082FD5DC1322F213208F030E2332309F4B3
:100F90004DC1FA01832F949198838150319681112C
:100FA000FACF8FEF830F90E00196480F591F231B54
:100FB0006C932111E1CF3032F9F241C1853061F4F7
:100FC0008EEF8093E800E8EEF0E0808180FFFDCFB7
:100FD00040684093E30033C1893089F5A11188C08E
:100FE0004093A0038EEF8093E80081E020ED31E094
:100FF000C9EED0E0ABEEB0E00CEE10E06DEE70E0CC
:101000008883A9014F5F5F4FF90194919C939923C5
:1010100061F0FA014491F8014083F901329694910C
:101020002D5F3F4FFB01908301C09A018F5F853098
:1010300039F7EAEEF0E08EE18083108200C188305B
:1010400081F4A03809F054C0E8EEF0E0808180FF20
:10105000FDCF8091A0038093F1008EEF8093E80094
:10106000EEC081111AC0E8EEF0E0808180FFFDCF74
:10107000A23851F4E9EEF0E060838091EB0085FB4B
:10108000882780F9108201C080E0E1EFF0E08083E2
:1010900010828EEF8093E800D2C0982F9D7F913010
:1010A00039F5A23029F54115510509F0C3C0262FA5
:1010B0002F779FEF920F943008F0BCC09EEF909373
:1010C000E8002093E900833021F481E28093EB0073
:1010D000B6C089E18093EB0081E090E002C0880F08
:1010E000991F2A95E2F7EAEEF0E080831082A7C00C
:1010F0006115710589F5A13A19F5813089F4E8EE99
:10110000F0E0808180FFFDCF80919F03E1EFF0E070
:1011100080831082108210828EEF8093E8008FC04F
:10112000833009F07FC0E8EEF0E0808180FFFDCFE2
:1011300080910D018093F1008EEF8093E8007FC0D5
:10114000A13209F06FC08B3009F06CC040930D01E3
:101150008EEF8093E80073C06130710509F062C0C2
:10116000A13AD1F58130D1F4E8EEF0E0808180FF42
:10117000FDCF80919E03E1EFF0E080831082E8E9EB
:10118000F3E08EE993E0A1EFB0E021912C938E176C
:101190009F07D9F78EEF8093E80051C0823069F441
:1011A000E8EEF0E0808180FFFDCF80910B0180931D
:1011B000F1008EEF8093E80042C0833099F5E8EEAD
:1011C000F0E0808180FFFDCF80910C018093F100E1
:1011D0008EEF8093E80033C0A13221F5893081F48D
:1011E000E8EEF0E0808182FFFDCF8091F1008093F6
:1011F0009603E8EEF0E08BEF80838EEF80831FC0D4
:101200008A3041F450930B01109297038EEF809334
:10121000E80015C08B3031F440930C018EEF8093C1
:10122000E8000DC081E28093EB0009C06C932111AE
:10123000A3CE05C06115710509F08ECFF3CFFF91E4
:10124000EF91DF91CF91BF91AF919F918F917F915E
:101250006F915F914F913F912F911F910F910F903F
:101260000FBE0F901F9018950F931F93CF93DF938E
:10127000009731F46115710519F480E090E03AC0EF
:101280008B01EC016EE070E081E090E00E94AD0B1C
:10129000FC01892B91F380E883830115110571F01E
:1012A0001387028781E883838091A1039091A20331
:1012B000892B21F4F093A203E093A1032097C9F0B6
:1012C000D187C0878381826083838091A3039091BB
:1012D000A403892B71F4F093A403E093A3038091FA
:1012E000A5039091A603892B21F4F093A603E09324
:1012F000A503CF01DF91CF911F910F910895A0E039
:10130000B0E0E5E8F9E00C94B10DAE014B5F5F4F42
:10131000FA0161917191AF018091A3039091A403AF
:101320000E94CC09E2E00C94CD0D6091A303709172
:10133000A4030E94070D08950F931F93CF93DF938B
:10134000E091A303F091A403238121FF1BC08C0132
:10135000D0E0C0E0F80181918F016091A30370910A
:10136000A403DB011896ED91FC911997882331F0C5
:101370000995892B79F3DFEFCFEFECCF8AE0099560
:10138000892B19F08FEF9FEF02C08D2F9C2FDF91DB
:10139000CF911F910F910895ABE0B0E0E2EDF9E03D
:1013A0000C94A10D6C017B018A01FC01178216824D
:1013B000838181FFCCC1CE0101963C01F60193816E
:1013C000F70193FD859193FF81917F01882309F4B3
:1013D000BAC1853239F493FD859193FF81917F01E4
:1013E000853229F4B60190E00E94070DE7CF912CD9
:1013F000212C312CFFE1F315D8F08B3279F038F441
:10140000803279F08332A1F4232D20611DC08D320A
:1014100061F0803369F4232D216016C0832D826032
:10142000382EE32DE4603E2E2AC0F32DF8601DC057
:1014300037FC2DC020ED280F2A3040F08E32B9F451
:1014400036FC81C1232D2064322E19C036FE06C021
:101450008AE0989E200D1124922E11C0EAE02E9E63
:10146000200D1124222EF32DF0623F2E08C08C3661
:1014700021F4832D8068382E02C0883641F4F701AC
:1014800093FD859193FF81917F018111B3CF982FB7
:101490009F7D9554933028F40C5F1F4F9FE39983F1
:1014A0000DC0833631F0833771F0833509F059C0B0
:1014B00021C0F801808189830E5F1F4F88248394A7
:1014C000912C530113C02801F2E04F0E511CF8017A
:1014D000A080B18036FE03C0692D70E002C06FEFBE
:1014E0007FEFC5010E94FC0C4C018201F32DFF77B8
:1014F0003F2E16C0280122E0420E511CF801A080A8
:10150000B18036FE03C0692D70E002C06FEF7FEF3F
:10151000C5010E94EA0C4C01F32DF0683F2E8201B8
:1015200033FC1BC0822D90E088169906B0F4B601FA
:1015300080E290E00E94070D2A94F4CFF50137FC79
:10154000859137FE81915F01B60190E00E94070D01
:1015500021102A9421E0821A91088114910471F7D4
:10156000E8C0843611F0893641F5F80137FE07C02E
:1015700060817181828193810C5F1F4F08C06081FF
:101580007181072E000C880B990B0E5F1F4FF32DF6
:10159000FF763F2E97FF09C09095809570956195D5
:1015A0007F4F8F4F9F4FF0683F2E2AE030E0A3011E
:1015B0000E94430D882E861845C0853731F4232DAF
:1015C0002F7EB22E2AE030E025C0932D997FB92ED0
:1015D0008F36C1F018F4883579F0B5C0803719F02E
:1015E000883721F0B0C0E92FE061BE2EB4FE0DC0F7
:1015F000FB2DF460BF2E09C034FE0AC0292F2660DF
:10160000B22E06C028E030E005C020E130E002C084
:1016100020E132E0F801B7FE07C06081718182816C
:1016200093810C5F1F4F06C06081718180E090E064
:101630000E5F1F4FA3010E94430D882E8618FB2DBD
:10164000FF773F2E36FE0DC0232D2E7FA22E89144C
:1016500058F434FE0BC032FC09C0832D8E7EA82EB8
:1016600005C0B82CA32C03C0B82C01C0B92CA4FE13
:101670000FC0FE01E80DF11D8081803321F49A2D09
:10168000997EA92E09C0A2FE06C0B394B39404C0EB
:101690008A2D867809F0B394A3FC11C0A0FE06C081
:1016A000B21488F4280C922C9B180EC0B21460F46B
:1016B000B60180E290E00E94070DB394F7CFB21418
:1016C00018F42B1802C0982C212CA4FE10C0B601CF
:1016D00080E390E00E94070DA2FE17C0A1FC03C0AA
:1016E00088E790E002C088E590E0B6010CC08A2D42
:1016F000867859F0A1FE02C08BE201C080E2A7FC0F
:101700008DE2B60190E00E94070D891438F4B6010D
:1017100080E390E00E94070D9A94F7CF8A94F3013A
:10172000E80DF11D8081B60190E00E94070D811047
:10173000F5CF222009F442CEB60180E290E00E946B
:10174000070D2A94F6CFF6018681978102C08FEFAC
:101750009FEF2B96E2E10C94BD0D0F931F93CF9357
:10176000DF93869F8001879F100D969F100D112497
:10177000C8010E94C90BEC01009729F0A80160E0A4
:1017800070E00E94F50CCE01DF91CF911F910F9177
:1017900008950F931F93CF93DF938230910510F438
:1017A00082E090E0E091A903F091AA0320E030E00C
:1017B000A0E0B0E0309719F140815181028113819E
:1017C00048175907C8F08417950769F4109731F046
:1017D00012960C93129713961C9327C00093A9039B
:1017E0001093AA0322C02115310519F0421753079F
:1017F00018F49A01BD01EF01DF01F801DBCF2115DB
:101800003105F9F0281B390B2430310580F48A8129
:101810009B816115710521F0FB019383828304C0D4
:101820009093AA038093A903FE01329644C0FE015F
:10183000E20FF31F8193919322503109398328835A
:101840003AC02091A7033091A803232B41F42091A3
:101850000201309103013093A8032093A703209144
:101860000001309101012115310541F42DB73EB73A
:101870004091040150910501241B350BE091A70311
:10188000F091A803E217F307A0F42E1B3F0B2817D3
:10189000390778F0AC014E5F5F4F2417350748F0E9
:1018A0004E0F5F1F5093A8034093A703819391931A
:1018B00002C0E0E0F0E0CF01DF91CF911F910F91E6
:1018C0000895CF93DF93009709F481C0FC0132970C
:1018D00013821282A091A903B091AA03109781F4F8
:1018E00020813181820F931F2091A7033091A8039B
:1018F0002817390751F5F093A803E093A70367C0B1
:10190000ED0120E030E0CE17DF0740F44A815B8133
:101910009E0141155105F1F0EA01F5CFD383C28351
:1019200040815181840F951FC817D90759F48881C8
:101930009981840F951F0296918380838A819B8170
:10194000938382832115310529F4F093AA03E09350
:10195000A9033DC0E901FB83EA8349915991C40F72
:10196000D51FEC17FD0761F480819181840F951FCD
:101970000296E90199838883828193819B838A837C
:10198000E0E0F0E012968D919C911397009719F08A
:10199000FD01DC01F7CF8D919C9111979D012E5F88
:1019A0003F4F820F931F2091A7033091A803281760
:1019B000390769F4309729F41092AA031092A90309
:1019C00002C013821282B093A803A093A703DF91F1
:1019D000CF910895FC010590615070400110D8F737
:1019E000809590958E0F9F1F0895DC0101C06D9327
:1019F00041505040E0F70895FC0161507040019063
:101A00000110D8F7809590958E0F9F1F08950F9322
:101A10001F93CF93DF93FB01238121FD03C08FEF41
:101A20009FEF2CC022FF16C046815781248135814B
:101A30004217530744F4A081B1819D012F5F3F4FAE
:101A4000318320838C93268137812F5F3F4F3783EB
:101A5000268314C08B01EC01FB010084F185E02D8D
:101A60000995892BE1F6D80116968D919C911797CF
:101A7000019617969C938E931697CE01DF91CF9186
:101A80001F910F910895FA01AA27283051F12031B2
:101A900081F1E8946F936E7F6E5F7F4F8F4F9F4F02
:101AA000AF4FB1E03ED0B4E03CD0670F781F891F44
:101AB0009A1FA11D680F791F8A1F911DA11D6A0F12
:101AC000711D811D911DA11D20D009F468943F91C5
:101AD0002AE0269F11243019305D3193DEF6CF01C4
:101AE0000895462F4770405D4193B3E00FD0C9F78A
:101AF000F6CF462F4F70405D4A3318F0495D31FDF7
:101B00004052419302D0A9F7EACFB4E0A695979549
:101B1000879577956795BA95C9F70097610571051F
:101B200008959B01AC010A2E069457954795379569
:101B30002795BA95C9F7620F731F841F951FA01DC3
:101B400008952F923F924F925F926F927F928F9261
:101B50009F92AF92BF92CF92DF92EF92FF920F933C
:101B60001F93CF93DF93CDB7DEB7CA1BDB0B0FB646
:101B7000F894DEBF0FBECDBF09942A883988488803
:101B80005F846E847D848C849B84AA84B984C88499
:101B9000DF80EE80FD800C811B81AA81B981CE0F90
:101BA000D11D0FB6F894DEBF0FBECDBFED01089575
:041BB000F894FFCFD7
:101BB4000000AB03200012345678907D010141549B
:101BC4006D656761333275345F554152545F494ED8
:101BD40049545F434F4D504C4554450041546D6545
:101BE4006761333275345F5350495F494E49545FDE
:101BF400434F4D504C4554450052465F4952515F46
:101C0400535441545553210052465F4952515F5336
:101C1400544154555300646174615B25645D3A20FA
:101C24002564001B5B32354444617461203D2025EA
:101C34003564004952515F4F4343555221006E525F
:101C44004632344C3031205265676973746572735F
:101C54002056616C75650020202020434F4E464974
:101C640047203A20253032580A00202020202045E1
:101C74004E5F4141203A20253032580A0020454E1B
:101C84005F525841444452203A20253032580A00C9
:101C9400202053455455505F4157203A2025303277
:101CA400580A0053455455505F52455452203A2027
:101CB400253032580A00202020202052465F434815
:101CC400203A20253032580A00202052465F5345DE
:101CD400545550203A20253032580A002020202024
:101CE400535441545553203A20253032580A005257
:101CF400585F414444525F5030203A20002530322E
:101D0400580052585F414444525F5031203A2000F9
:101D140052585F414444525F5032203A20253032B9
:101D2400580A0052585F414444525F5033203A20CD
:101D3400253032580A0052585F414444525F5034AF
:101D4400203A20253032580A0052585F4144445208
:101D54005F5035203A20253032580A002020205484
:101D6400585F41444452203A20002052585F505753
:101D7400445F5030203A20253032580A002052580F
:101D84005F5057445F5031203A20253032580A00C2
:101D94002052585F5057445F5032203A2025303249
:101DA400580A002052585F5057445F5033203A205D
:101DB400253032580A002052585F5057445F50343F
:101DC400203A20253032580A002052585F50574498
:101DD4005F5035203A20253032580A004649464F94
:101DE4005F5354415455533A20253032580A002049
:101DF4002020202044594E5044203A202530325887
:101E04000A0020202046454154555245203A2025B9
:101E14003032580A004D6178696D756D206E756DAC
:0A1E2400626572206F66205478009A
:00000001FF
